:100000000C94FE000C9416010C9448020C941601FA
:100010000C9416010C9416010C9416010C94160104
:100020000C9416010C9416010C9416010C941601F4
:100030000C9416010C9416010C9416010C941601E4
:100040000C9416010C9416010C9416010C941601D4
:100050000C9416010C9416010C9416010C941601C4
:100060000C9416010C9416010C9416010C941601B4
:100070000C9416010C9416010C9416010C941601A4
:100080000C9416010C9416010C9416010C94160194
:100090000C9416010C9416010C9416010C94160184
:1000A0000C9416010C9416010C9416010C94160174
:1000B0000C9416010C9416010C9416010C94160164
:1000C0000C9416010C9416010C9416010C94160154
:1000D0000C9416010C9416010C9416010C94160144
:1000E0000C9416010C9416010C9416010C94160134
:1000F0000C9416010C9416010C9416010C94160124
:100100000C9416010C9416010C9416010C94160113
:100110000C9416010C9416010C9416010C94160103
:100120000C9416010C9416010C9416010C941601F3
:100130000C9416010C9416010C9416010C941601E3
:100140000C9416010C9416010C9416010C941601D3
:100150000C9416010C9416010C9416010C941601C3
:100160000C9416010C9416010C9416010C941601B3
:100170000C9416010C9416010C9416010C941601A3
:100180000C9416010C9416010C9416010C94160193
:100190000C9416010C9416010C9416010C94160183
:1001A0000C9416010C9416010C9416010C94160173
:1001B0000C9416010C9416010C9416010C94160163
:1001C0000C9416010C9416010C9416010C94160153
:1001D0000C9416010C9416010C9416010C94160143
:1001E0000C9416010C9416010C9416010C94160133
:1001F0000C9416010C9416010C94160111241FBEC8
:10020000CFEFCDBFDFE3DEBF00E00CBF18BE19BEED
:100210001ABE1BBE20E2A0E0B0E201C01D92A130D8
:10022000B207E1F70E94AB010C9462020C9400004B
:1002300080E48093A2068CEA8093A1068CE58093EB
:10024000C00B80E1809301068093060688E18093CD
:10025000A50608958093C30BE2ECFBE08081882320
:10026000ECF78091C30B08958FEF0E942A01089547
:1002700082E080935000E1E5F0E0808181FFFDCFD6
:1002800088ED84BF91E09093400084BF10924100BC
:1002900008950F931F93CF93DF93062F18E01093C9
:1002A000A606C5EAD6E094E098838F730E942A01DF
:1002B000802F0E942A011883DF91CF911F910F9107
:1002C00008951F93CF93DF9318E01093A606C5EA15
:1002D000D6E094E0988380680E942A010E9434014D
:1002E0001883DF91CF911F91089581E08093490693
:1002F00090E890934A069093420680935706809325
:10030000A200789461E083E20E94490168EE83E2F2
:100310000E94490167E980E20E944901089588E04E
:100320008093610694E09093620628E12093A409EB
:1003300023E02093A5099093A60990EE9093A70936
:10034000809365060895E1EAF9E0908195FFFDCF7D
:100350008093A0090895CF93DF9300D000D0CDB74C
:10036000DEB70E9438010E9418010E9475010E94A8
:100370008F0180E7809361068093640687E0809315
:100380006E06109226098FE78093270981E08093FB
:10039000000983E78093010910922C0910922D091E
:1003A00010922A0910922B091092280910922909FB
:1003B00080E48093760680937506809374060F2EF2
:1003C000E12CF9E0FF2EF02D809100208130E1F743
:1003D00088E20E946101182F89E20E946101C82E03
:1003E0008AE20E946101082F8BE20E946101B82E0F
:1003F0008CE20E946101D82E8DE20E946101A82E3C
:1004000083E00E94A301812F0E94A3018C2D0E94F2
:10041000A301802F0E94A3018B2D0E94A3018D2D8B
:100420000E94A3018A2D0E94A3018CEF0E94A301C8
:100430008D2D90E09A298D839E83802F90E09B29BB
:100440008B839C83812F90E09C2989839A838D8163
:100450009E8199231CF4919581959109F70184A7B8
:1004600095A78B819C8199231CF491958195910985
:10047000F70182A793A789819A8199231CF491950A
:1004800081959109F70180A791A7109200209CCF38
:100490001F920F920FB60F92112408B60F9218BE3A
:1004A0008F939F939FB781E080934C0680930020A9
:1004B0009FBF9F918F910F9008BE0F900FBE0F901E
:0804C0001F901895F894FFCF7E
:00000001FF
